{
  "address": "0x2BcE7330F68d3f36749fb248D3C76Bd82A6FA71a",
  "abi": [
    {
      "inputs": [
        {
          "internalType": "address",
          "name": "_owner",
          "type": "address"
        }
      ],
      "stateMutability": "nonpayable",
      "type": "constructor"
    },
    {
      "inputs": [],
      "name": "AlreadyRevealed",
      "type": "error"
    },
    {
      "inputs": [],
      "name": "AlreadyVoted",
      "type": "error"
    },
    {
      "inputs": [],
      "name": "DecryptionInProgress",
      "type": "error"
    },
    {
      "inputs": [],
      "name": "HandlesAlreadySavedForRequestID",
      "type": "error"
    },
    {
      "inputs": [],
      "name": "InsufficientCreationFee",
      "type": "error"
    },
    {
      "inputs": [],
      "name": "InvalidKMSSignatures",
      "type": "error"
    },
    {
      "inputs": [],
      "name": "InvalidOption",
      "type": "error"
    },
    {
      "inputs": [],
      "name": "InvalidOptions",
      "type": "error"
    },
    {
      "inputs": [],
      "name": "InvalidTimeRange",
      "type": "error"
    },
    {
      "inputs": [],
      "name": "NoHandleFoundForRequestID",
      "type": "error"
    },
    {
      "inputs": [],
      "name": "OnlyCreatorOrOwner",
      "type": "error"
    },
    {
      "inputs": [],
      "name": "OnlyOwner",
      "type": "error"
    },
    {
      "inputs": [],
      "name": "PollNotFound",
      "type": "error"
    },
    {
      "inputs": [],
      "name": "UnauthorizedCallback",
      "type": "error"
    },
    {
      "inputs": [],
      "name": "VotingNotActive",
      "type": "error"
    },
    {
      "inputs": [],
      "name": "VotingStillActive",
      "type": "error"
    },
    {
      "inputs": [],
      "name": "WithdrawalFailed",
      "type": "error"
    },
    {
      "anonymous": false,
      "inputs": [
        {
          "indexed": false,
          "internalType": "uint256",
          "name": "oldFee",
          "type": "uint256"
        },
        {
          "indexed": false,
          "internalType": "uint256",
          "name": "newFee",
          "type": "uint256"
        },
        {
          "indexed": true,
          "internalType": "address",
          "name": "owner",
          "type": "address"
        }
      ],
      "name": "CreationFeeUpdated",
      "type": "event"
    },
    {
      "anonymous": false,
      "inputs": [
        {
          "indexed": true,
          "internalType": "uint256",
          "name": "requestID",
          "type": "uint256"
        }
      ],
      "name": "DecryptionFulfilled",
      "type": "event"
    },
    {
      "anonymous": false,
      "inputs": [
        {
          "indexed": false,
          "internalType": "uint256",
          "name": "amount",
          "type": "uint256"
        },
        {
          "indexed": true,
          "internalType": "address",
          "name": "owner",
          "type": "address"
        }
      ],
      "name": "FeesWithdrawn",
      "type": "event"
    },
    {
      "anonymous": false,
      "inputs": [
        {
          "indexed": true,
          "internalType": "uint256",
          "name": "pollId",
          "type": "uint256"
        },
        {
          "indexed": true,
          "internalType": "address",
          "name": "creator",
          "type": "address"
        },
        {
          "indexed": false,
          "internalType": "string",
          "name": "title",
          "type": "string"
        },
        {
          "indexed": false,
          "internalType": "uint256",
          "name": "startTime",
          "type": "uint256"
        },
        {
          "indexed": false,
          "internalType": "uint256",
          "name": "endTime",
          "type": "uint256"
        },
        {
          "indexed": false,
          "internalType": "uint256",
          "name": "optionsCount",
          "type": "uint256"
        },
        {
          "indexed": false,
          "internalType": "uint256",
          "name": "creationFee",
          "type": "uint256"
        }
      ],
      "name": "PollCreated",
      "type": "event"
    },
    {
      "anonymous": false,
      "inputs": [
        {
          "indexed": true,
          "internalType": "uint256",
          "name": "pollId",
          "type": "uint256"
        },
        {
          "indexed": true,
          "internalType": "uint256",
          "name": "requestId",
          "type": "uint256"
        }
      ],
      "name": "RevealRequested",
      "type": "event"
    },
    {
      "anonymous": false,
      "inputs": [
        {
          "indexed": true,
          "internalType": "uint256",
          "name": "pollId",
          "type": "uint256"
        },
        {
          "indexed": false,
          "internalType": "uint256[]",
          "name": "plainTallies",
          "type": "uint256[]"
        },
        {
          "indexed": false,
          "internalType": "uint256",
          "name": "totalVotes",
          "type": "uint256"
        }
      ],
      "name": "Revealed",
      "type": "event"
    },
    {
      "anonymous": false,
      "inputs": [
        {
          "indexed": true,
          "internalType": "uint256",
          "name": "pollId",
          "type": "uint256"
        },
        {
          "indexed": true,
          "internalType": "address",
          "name": "voter",
          "type": "address"
        },
        {
          "indexed": true,
          "internalType": "uint256",
          "name": "optionId",
          "type": "uint256"
        }
      ],
      "name": "Voted",
      "type": "event"
    },
    {
      "inputs": [
        {
          "internalType": "address",
          "name": "user",
          "type": "address"
        }
      ],
      "name": "canCreatePoll",
      "outputs": [
        {
          "internalType": "bool",
          "name": "",
          "type": "bool"
        }
      ],
      "stateMutability": "view",
      "type": "function"
    },
    {
      "inputs": [
        {
          "internalType": "string",
          "name": "title",
          "type": "string"
        },
        {
          "internalType": "string",
          "name": "description",
          "type": "string"
        },
        {
          "internalType": "string[]",
          "name": "options",
          "type": "string[]"
        },
        {
          "internalType": "uint256",
          "name": "startTime",
          "type": "uint256"
        },
        {
          "internalType": "uint256",
          "name": "endTime",
          "type": "uint256"
        }
      ],
      "name": "createPoll",
      "outputs": [
        {
          "internalType": "uint256",
          "name": "pollId",
          "type": "uint256"
        }
      ],
      "stateMutability": "payable",
      "type": "function"
    },
    {
      "inputs": [],
      "name": "creationFee",
      "outputs": [
        {
          "internalType": "uint256",
          "name": "",
          "type": "uint256"
        }
      ],
      "stateMutability": "view",
      "type": "function"
    },
    {
      "inputs": [],
      "name": "getContractBalance",
      "outputs": [
        {
          "internalType": "uint256",
          "name": "",
          "type": "uint256"
        }
      ],
      "stateMutability": "view",
      "type": "function"
    },
    {
      "inputs": [],
      "name": "getCreationFee",
      "outputs": [
        {
          "internalType": "uint256",
          "name": "",
          "type": "uint256"
        }
      ],
      "stateMutability": "view",
      "type": "function"
    },
    {
      "inputs": [
        {
          "internalType": "uint256",
          "name": "pollId",
          "type": "uint256"
        }
      ],
      "name": "getPollInfo",
      "outputs": [
        {
          "internalType": "string",
          "name": "title",
          "type": "string"
        },
        {
          "internalType": "string",
          "name": "description",
          "type": "string"
        },
        {
          "internalType": "string[]",
          "name": "options",
          "type": "string[]"
        },
        {
          "internalType": "uint256",
          "name": "startTime",
          "type": "uint256"
        },
        {
          "internalType": "uint256",
          "name": "endTime",
          "type": "uint256"
        },
        {
          "internalType": "bool",
          "name": "revealed",
          "type": "bool"
        },
        {
          "internalType": "address",
          "name": "creator",
          "type": "address"
        },
        {
          "internalType": "uint256",
          "name": "totalVoters",
          "type": "uint256"
        }
      ],
      "stateMutability": "view",
      "type": "function"
    },
    {
      "inputs": [
        {
          "internalType": "uint256",
          "name": "pollId",
          "type": "uint256"
        }
      ],
      "name": "getPollResults",
      "outputs": [
        {
          "internalType": "uint256[]",
          "name": "tallies",
          "type": "uint256[]"
        },
        {
          "internalType": "uint256",
          "name": "totalVotes",
          "type": "uint256"
        }
      ],
      "stateMutability": "view",
      "type": "function"
    },
    {
      "inputs": [
        {
          "internalType": "uint256",
          "name": "pollId",
          "type": "uint256"
        }
      ],
      "name": "getPollStatus",
      "outputs": [
        {
          "internalType": "string",
          "name": "status",
          "type": "string"
        }
      ],
      "stateMutability": "view",
      "type": "function"
    },
    {
      "inputs": [
        {
          "internalType": "uint256",
          "name": "pollId",
          "type": "uint256"
        },
        {
          "internalType": "address",
          "name": "voter",
          "type": "address"
        }
      ],
      "name": "hasVoted",
      "outputs": [
        {
          "internalType": "bool",
          "name": "",
          "type": "bool"
        }
      ],
      "stateMutability": "view",
      "type": "function"
    },
    {
      "inputs": [
        {
          "internalType": "uint256",
          "name": "pollId",
          "type": "uint256"
        }
      ],
      "name": "isDecryptionInProgress",
      "outputs": [
        {
          "internalType": "bool",
          "name": "",
          "type": "bool"
        }
      ],
      "stateMutability": "view",
      "type": "function"
    },
    {
      "inputs": [],
      "name": "owner",
      "outputs": [
        {
          "internalType": "address",
          "name": "",
          "type": "address"
        }
      ],
      "stateMutability": "view",
      "type": "function"
    },
    {
      "inputs": [],
      "name": "pollCount",
      "outputs": [
        {
          "internalType": "uint256",
          "name": "",
          "type": "uint256"
        }
      ],
      "stateMutability": "view",
      "type": "function"
    },
    {
      "inputs": [
        {
          "internalType": "uint256",
          "name": "",
          "type": "uint256"
        }
      ],
      "name": "polls",
      "outputs": [
        {
          "internalType": "string",
          "name": "title",
          "type": "string"
        },
        {
          "internalType": "string",
          "name": "description",
          "type": "string"
        },
        {
          "internalType": "uint256",
          "name": "startTime",
          "type": "uint256"
        },
        {
          "internalType": "uint256",
          "name": "endTime",
          "type": "uint256"
        },
        {
          "internalType": "bool",
          "name": "revealed",
          "type": "bool"
        },
        {
          "internalType": "address",
          "name": "creator",
          "type": "address"
        },
        {
          "internalType": "uint256",
          "name": "totalVoters",
          "type": "uint256"
        }
      ],
      "stateMutability": "view",
      "type": "function"
    },
    {
      "inputs": [],
      "name": "protocolId",
      "outputs": [
        {
          "internalType": "uint256",
          "name": "",
          "type": "uint256"
        }
      ],
      "stateMutability": "pure",
      "type": "function"
    },
    {
      "inputs": [
        {
          "internalType": "uint256",
          "name": "pollId",
          "type": "uint256"
        }
      ],
      "name": "publicReveal",
      "outputs": [],
      "stateMutability": "nonpayable",
      "type": "function"
    },
    {
      "inputs": [
        {
          "internalType": "uint256",
          "name": "pollId",
          "type": "uint256"
        }
      ],
      "name": "requestReveal",
      "outputs": [],
      "stateMutability": "nonpayable",
      "type": "function"
    },
    {
      "inputs": [
        {
          "internalType": "uint256",
          "name": "requestId",
          "type": "uint256"
        },
        {
          "internalType": "bytes",
          "name": "cleartexts",
          "type": "bytes"
        },
        {
          "internalType": "bytes",
          "name": "decryptionProof",
          "type": "bytes"
        }
      ],
      "name": "revealCallback",
      "outputs": [],
      "stateMutability": "nonpayable",
      "type": "function"
    },
    {
      "inputs": [
        {
          "internalType": "uint256",
          "name": "newFee",
          "type": "uint256"
        }
      ],
      "name": "setCreationFee",
      "outputs": [],
      "stateMutability": "nonpayable",
      "type": "function"
    },
    {
      "inputs": [
        {
          "internalType": "address",
          "name": "newOwner",
          "type": "address"
        }
      ],
      "name": "transferOwnership",
      "outputs": [],
      "stateMutability": "nonpayable",
      "type": "function"
    },
    {
      "inputs": [
        {
          "internalType": "uint256",
          "name": "pollId",
          "type": "uint256"
        },
        {
          "internalType": "uint256",
          "name": "optionId",
          "type": "uint256"
        },
        {
          "internalType": "externalEuint64",
          "name": "encryptedOne",
          "type": "bytes32"
        },
        {
          "internalType": "bytes",
          "name": "inputProof",
          "type": "bytes"
        }
      ],
      "name": "vote",
      "outputs": [],
      "stateMutability": "nonpayable",
      "type": "function"
    },
    {
      "inputs": [],
      "name": "withdrawFees",
      "outputs": [],
      "stateMutability": "nonpayable",
      "type": "function"
    }
  ],
  "transactionHash": "0x4d637eeaa9a5bfd485fd37af04c83963b2760de03bbbc038048aef5a10d945db",
  "args": [
    "0x2E35c2abd06d974e5a519eB66a415Ced302b991d"
  ],
  "numDeployments": 1,
  "solcInputHash": "728d2b7684a6fa785aa965bd0b3bbb3d",
  "bytecode": "0x608060405266038d7ea4c6800060025534801561001a575f5ffd5b506040516127a13803806127a1833981016040819052610039916101da565b6101b36100d7604080516080810182525f808252602082018190529181018290526060810191909152506040805160808101825273687820221192c5b662b25367f70076a37bc79b6c815273848b0066793bcc60346da1f49049357399b8d595602082015273a02cda4ca3a71d7c46997716f4283aa851c2881291810191909152731364cbbf2cdf5032c47d8226a6f6fbd2afcdacac606082015290565b80517f9e7b61f58c47dc699ac88507c4f5bb9f121c03808c5676a8078fe583e464970080546001600160a01b03199081166001600160a01b039384161790915560208301517f9e7b61f58c47dc699ac88507c4f5bb9f121c03808c5676a8078fe583e46497018054831691841691909117905560408301517f9e7b61f58c47dc699ac88507c4f5bb9f121c03808c5676a8078fe583e46497028054831691841691909117905560608301517f9e7b61f58c47dc699ac88507c4f5bb9f121c03808c5676a8078fe583e46497038054909216921691909117905550565b5f80546001600160a01b0319166001600160a01b0392909216919091178155600155610207565b5f602082840312156101ea575f5ffd5b81516001600160a01b0381168114610200575f5ffd5b9392505050565b61258d806102145f395ff3fe608060405260043610610162575f3560e01c80639207891d116100c6578063db07b68e1161007c578063f2fde38b11610057578063f2fde38b146103c8578063faccb10d146103e7578063fed16d2214610415575f5ffd5b8063db07b68e14610380578063dce0b4e414610394578063f0fc4580146103a9575f5ffd5b8063b0c095e3116100ac578063b0c095e314610321578063b7d862251461034d578063da1f12ab1461036c575f5ffd5b80639207891d146102da578063ac2f0074146102ef575f5ffd5b8063476343ee1161011b578063752fe5c111610101578063752fe5c1146102665780637c1754e8146102855780638da5cb5b146102a4575f5ffd5b8063476343ee146102405780636f9fb98a14610254575f5ffd5b806334b4bd601161014b57806334b4bd60146101cf57806340261cdd146101f05780634385963214610211575f5ffd5b806329b8f44a1461016657806333b4097b146101a2575b5f5ffd5b348015610171575f5ffd5b50610185610180366004611d53565b610434565b604051610199989796959493929190611d98565b60405180910390f35b3480156101ad575f5ffd5b506101c16101bc366004611d53565b6106a9565b604051610199929190611e57565b6101e26101dd366004611f5a565b6107d6565b604051908152602001610199565b3480156101fb575f5ffd5b5061020f61020a366004611d53565b610981565b005b34801561021c575f5ffd5b5061023061022b3660046120a6565b610a3e565b6040519015158152602001610199565b34801561024b575f5ffd5b5061020f610a92565b34801561025f575f5ffd5b50476101e2565b348015610271575f5ffd5b5061020f6102803660046120d0565b610bba565b348015610290575f5ffd5b5061020f61029f366004611d53565b610d70565b3480156102af575f5ffd5b505f546102c2906001600160a01b031681565b6040516001600160a01b039091168152602001610199565b3480156102e5575f5ffd5b506101e260015481565b3480156102fa575f5ffd5b5061030e610309366004611d53565b610dd4565b6040516101999796959493929190612157565b34801561032c575f5ffd5b5061034061033b366004611d53565b610f28565b60405161019991906121af565b348015610358575f5ffd5b5061020f610367366004611d53565b61108f565b348015610377575f5ffd5b506127116101e2565b34801561038b575f5ffd5b506002546101e2565b34801561039f575f5ffd5b506101e260025481565b3480156103b4575f5ffd5b5061020f6103c33660046121c1565b6110f9565b3480156103d3575f5ffd5b5061020f6103e236600461222e565b611283565b3480156103f2575f5ffd5b5061023061040136600461222e565b6002546001600160a01b0390911631101590565b348015610420575f5ffd5b5061023061042f366004611d53565b61133c565b60608060605f5f5f5f5f88600154811061046157604051633e75bf7b60e21b815260040160405180910390fd5b5f8a81526003602081905260409091209081015460048201546005830154600984015484548594600186019460028701949193909260ff83169261010090046001600160a01b0316919088906104b690612247565b80601f01602080910402602001604051908101604052809291908181526020018280546104e290612247565b801561052d5780601f106105045761010080835404028352916020019161052d565b820191905f5260205f20905b81548152906001019060200180831161051057829003601f168201915b5050505050975086805461054090612247565b80601f016020809104026020016040519081016040528092919081815260200182805461056c90612247565b80156105b75780601f1061058e576101008083540402835291602001916105b7565b820191905f5260205f20905b81548152906001019060200180831161059a57829003601f168201915b5050505050965085805480602002602001604051908101604052809291908181526020015f905b82821015610686578382905f5260205f200180546105fb90612247565b80601f016020809104026020016040519081016040528092919081815260200182805461062790612247565b80156106725780601f1061064957610100808354040283529160200191610672565b820191905f5260205f20905b81548152906001019060200180831161065557829003601f168201915b5050505050815260200190600101906105de565b505050509550995099509950995099509950995099505050919395975091939597565b60605f8260015481106106cf57604051633e75bf7b60e21b815260040160405180910390fd5b5f848152600360205260409020600581015460ff1661073a57600281015467ffffffffffffffff81111561070557610705611ea3565b60405190808252806020026020018201604052801561072e578160200160208202803683370190505b505f93509350506107d0565b600281015467ffffffffffffffff81111561075757610757611ea3565b604051908082528060200260200182016040528015610780578160200160208202803683370190505b5093505f5b60028201548110156107c8575f81815260078301602052604090205485518690839081106107b5576107b5612279565b6020908102919091010152600101610785565b506009015491505b50915091565b5f6002543410156107fa57604051630535b74760e41b815260040160405180910390fd5b81831015806108095750428211155b156108275760405163536a71af60e01b815260040160405180910390fd5b6002845110806108385750600a8451115b1561085657604051630280f17760e01b815260040160405180910390fd5b60018054905f610865836122a1565b909155505f818152600360205260409020909150806108848882612304565b50600181016108938782612304565b5084516108a99060028301906020880190611c54565b5060038101849055600481018390556005810180547fffffffffffffffffffffff0000000000000000000000000000000000000000001661010033021790555f600982018190555b855181101561092b575f6109045f611375565b5f8381526006850160205260409020819055905061092181611391565b50506001016108f1565b50336001600160a01b0316827f95e3a911dfae9b80d75cae4bb83c2d7ad30c9ac41f86961dc713d83e3a207e708987878a513460405161096f9594939291906123bf565b60405180910390a35095945050505050565b5f81815260036020526040902060050154819061010090046001600160a01b031633148015906109bb57505f546001600160a01b03163314155b156109d9576040516367113cd960e01b815260040160405180910390fd5b8160015481106109fc57604051633e75bf7b60e21b815260040160405180910390fd5b5f838152600360205260409020600401548390421015610a2f57604051633483eb6360e01b815260040160405180910390fd5b610a38846113a0565b50505050565b5f826001548110610a6257604051633e75bf7b60e21b815260040160405180910390fd5b50505f9182526003602090815260408084206001600160a01b039390931684526008909201905290205460ff1690565b5f546001600160a01b03163314610abc57604051635fc483c560e01b815260040160405180910390fd5b4780610b0f5760405162461bcd60e51b815260206004820152601360248201527f4e6f206665657320746f2077697468647261770000000000000000000000000060448201526064015b60405180910390fd5b5f80546040516001600160a01b039091169083908381818185875af1925050503d805f8114610b59576040519150601f19603f3d011682016040523d82523d5f602084013e610b5e565b606091505b5050905080610b80576040516327fcd9d160e01b815260040160405180910390fd5b60405182815233907f812bcf6853ebc81dc0a1d2323893eedad6cd086a4398311a699e0a7acdf187b3906020015b60405180910390a25050565b846001548110610bdd57604051633e75bf7b60e21b815260040160405180910390fd5b5f868152600360208190526040909120908101548791904290811080610c07575081600401548110155b15610c2557604051639b8cc47560e01b815260040160405180910390fd5b5f898152600360209081526040808320338452600881019092529091205460ff1615610c6457604051637c9a1cf960e01b815260040160405180910390fd5b60028101548910610c8857604051632a71953160e01b815260040160405180910390fd5b5f610cc88989898080601f0160208091040260200160405190810160405280939291908181526020018383808284375f920191909152506114df92505050565b5f8b8152600684016020526040812054919250610ce582846114f3565b5f8d815260068601602052604090208190559050610d0281611391565b50335f9081526008850160205260408120805460ff1916600117905560098501805491610d2e836122a1565b90915550506040518c9033908f907f1abe610cf2bf87e57dcc1181fcf5ac0934e843d8344ab9eed6e86c799f62585e905f90a450505050505050505050505050565b806001548110610d9357604051633e75bf7b60e21b815260040160405180910390fd5b5f828152600360205260409020600401548290421015610dc657604051633483eb6360e01b815260040160405180910390fd5b610dcf836113a0565b505050565b60036020525f9081526040902080548190610dee90612247565b80601f0160208091040260200160405190810160405280929190818152602001828054610e1a90612247565b8015610e655780601f10610e3c57610100808354040283529160200191610e65565b820191905f5260205f20905b815481529060010190602001808311610e4857829003601f168201915b505050505090806001018054610e7a90612247565b80601f0160208091040260200160405190810160405280929190818152602001828054610ea690612247565b8015610ef15780601f10610ec857610100808354040283529160200191610ef1565b820191905f5260205f20905b815481529060010190602001808311610ed457829003601f168201915b505050506003830154600484015460058501546009909501549394919390925060ff82169161010090046001600160a01b03169087565b6060816001548110610f4d57604051633e75bf7b60e21b815260040160405180910390fd5b5f8381526003602052604090206005810154429060ff1615610fa8576040518060400160405280600881526020017f72657665616c656400000000000000000000000000000000000000000000000081525093505050611089565b8160030154811015610ff3576040518060400160405280600881526020017f7570636f6d696e6700000000000000000000000000000000000000000000000081525093505050611089565b8160030154811015801561100a5750816004015481105b1561104e576040518060400160405280600681526020017f616374697665000000000000000000000000000000000000000000000000000081525093505050611089565b6040518060400160405280600581526020017f656e646564000000000000000000000000000000000000000000000000000000815250935050505b50919050565b5f546001600160a01b031633146110b957604051635fc483c560e01b815260040160405180910390fd5b6002805490829055604080518281526020810184905233917fcf6ba38564654f22e1cd03d3b4ecb765884d356b6e051f2433185e44eacb15019101610bae565b5f195f5b60015481101561112c575f818152600460205260409020548590036111245780915061112c565b6001016110fd565b505f19810361114e57604051637ae3640d60e11b815260040160405180910390fd5b611159848484611521565b5f818152600360205260408120600281015490918167ffffffffffffffff81111561118657611186611ea3565b6040519080825280602002602001820160405280156111af578160200160208202803683370190505b5090505f5b8281101561121a575f6008820260208901015190508067ffffffffffffffff168383815181106111e6576111e6612279565b6020908102919091018101919091525f838152600787019091526040902067ffffffffffffffff90911690556001016111b4565b5060058301805460ff191660011790555f84815260046020526040808220919091556009840154905185917f9e3628a7424d0e9dd3ae9aeb693ab0a1a0ebc53510f6e8d0af9fa7b3418db97691611272918591611e57565b60405180910390a250505050505050565b5f546001600160a01b031633146112ad57604051635fc483c560e01b815260040160405180910390fd5b6001600160a01b0381166113035760405162461bcd60e51b815260206004820152601560248201527f496e76616c6964206f776e6572206164647265737300000000000000000000006044820152606401610b06565b5f80547fffffffffffffffffffffffff0000000000000000000000000000000000000000166001600160a01b0392909216919091179055565b5f81600154811061136057604051633e75bf7b60e21b815260040160405180910390fd5b50505f90815260046020526040902054151590565b5f61138b8267ffffffffffffffff16600561158a565b92915050565b5f61139c8230611647565b5090565b5f818152600360205260409020600581015460ff16156113d35760405163a89ac15160e01b815260040160405180910390fd5b5f82815260046020526040902054156113ff5760405163626eb48b60e01b815260040160405180910390fd5b60028101545f8167ffffffffffffffff81111561141e5761141e611ea3565b604051908082528060200260200182016040528015611447578160200160208202803683370190505b5090505f5b82811015611489575f81815260068501602052604090205482828151811061147657611476612279565b602090810291909101015260010161144c565b505f61149c826301e1f88b60e71b6116d0565b5f8681526004602052604080822083905551919250829187917f636f7c8c708e048e354abf12cce3c8388becccbc306c3aca98b59406c7e0a9d391a35050505050565b5f6114ec838360056116dc565b9392505050565b5f82611505576115025f611375565b92505b81611516576115135f611375565b91505b6114ec83835f6117fc565b5f61152b846118dc565b90505f6115398285856119ad565b9050806115595760405163cf6c44e960e01b815260040160405180910390fd5b60405185907f1af0453083661051f6e56e5c070792320652e612154bf9af8637bb1e7655b99d905f90a25050505050565b7f9e7b61f58c47dc699ac88507c4f5bb9f121c03808c5676a8078fe583e464970154604051639cd07acb60e01b81525f917f9e7b61f58c47dc699ac88507c4f5bb9f121c03808c5676a8078fe583e4649700916001600160a01b0390911690639cd07acb906115ff9087908790600401612415565b6020604051808303815f875af115801561161b573d5f5f3e3d5ffd5b505050506040513d601f19601f8201168201806040525081019061163f9190612429565b949350505050565b5f7f9e7b61f58c47dc699ac88507c4f5bb9f121c03808c5676a8078fe583e46497008054604051635ca4b5b160e11b8152600481018690526001600160a01b03858116602483015292935091169063b9496b62906044015f604051808303815f87803b1580156116b5575f5ffd5b505af11580156116c7573d5f5f3e3d5ffd5b50505050505050565b5f6114ec83835f611a99565b7f9e7b61f58c47dc699ac88507c4f5bb9f121c03808c5676a8078fe583e46497015460405163196d0b9b60e01b81525f917f9e7b61f58c47dc699ac88507c4f5bb9f121c03808c5676a8078fe583e4649700916001600160a01b039091169063196d0b9b90611755908890339089908990600401612440565b6020604051808303815f875af1158015611771573d5f5f3e3d5ffd5b505050506040513d601f19601f820116820180604052508101906117959190612429565b8154604051630f8e573b60e21b8152600481018390523360248201529193506001600160a01b031690633e395cec906044015f604051808303815f87803b1580156117de575f5ffd5b505af11580156117f0573d5f5f3e3d5ffd5b50505050509392505050565b5f5f821561180f5750600160f81b611812565b505f5b5f7f9e7b61f58c47dc699ac88507c4f5bb9f121c03808c5676a8078fe583e4649700600181015460405163022f65e760e31b815260048101899052602481018890527fff00000000000000000000000000000000000000000000000000000000000000851660448201529192506001600160a01b03169063117b2f38906064016020604051808303815f875af11580156118ae573d5f5f3e3d5ffd5b505050506040513d601f19601f820116820180604052508101906118d29190612429565b9695505050505050565b5f8181527f878245876662ba28a480c5ea71726db859fb50222b0a3d7cbbc21cfa336faf0160205260408120546060917f878245876662ba28a480c5ea71726db859fb50222b0a3d7cbbc21cfa336faf0091900361194d5760405163d66ca67560e01b815260040160405180910390fd5b5f838152600182016020908152604091829020805483518184028101840190945280845290918301828280156119a057602002820191905f5260205f20905b81548152602001906001019080831161198c575b5050505050915050919050565b5f5f835160206119bd919061247f565b6119c890602061247f565b90505f84826040516020016119de929190612492565b60405160208183030381529060405290505f611a177f9e7b61f58c47dc699ac88507c4f5bb9f121c03808c5676a8078fe583e464970090565b60038101546040516378542ead60e01b81529192506001600160a01b0316906378542ead90611a4e908a9086908a906004016124e6565b6020604051808303815f875af1158015611a6a573d5f5f3e3d5ffd5b505050506040513d601f19601f82011682018060405250810190611a8e919061251e565b979650505050505050565b7f878245876662ba28a480c5ea71726db859fb50222b0a3d7cbbc21cfa336faf0080547f9e7b61f58c47dc699ac88507c4f5bb9f121c03808c5676a8078fe583e46497008054604051637d6e912360e11b81529293926001600160a01b039091169063fadd224690611b0f90899060040161253d565b5f604051808303815f87803b158015611b26575f5ffd5b505af1158015611b38573d5f5f3e3d5ffd5b5050506002820154604051633263b83b60e01b81526001600160a01b039091169150633263b83b908690611b749087908b908b9060040161254f565b5f604051808303818588803b158015611b8b575f5ffd5b505af1158015611b9d573d5f5f3e3d5ffd5b5050505050611bac8387611bc7565b8154825f611bb9836122a1565b919050555050509392505050565b5f8281527f878245876662ba28a480c5ea71726db859fb50222b0a3d7cbbc21cfa336faf0160205260409020547f878245876662ba28a480c5ea71726db859fb50222b0a3d7cbbc21cfa336faf009015611c3457604051633f06d22b60e01b815260040160405180910390fd5b5f83815260018201602090815260409091208351610a3892850190611ca4565b828054828255905f5260205f20908101928215611c98579160200282015b82811115611c985782518290611c889082612304565b5091602001919060010190611c72565b5061139c929150611ce9565b828054828255905f5260205f20908101928215611cdd579160200282015b82811115611cdd578251825591602001919060010190611cc2565b5061139c929150611d05565b8082111561139c575f611cfc8282611d19565b50600101611ce9565b5b8082111561139c575f8155600101611d06565b508054611d2590612247565b5f825580601f10611d34575050565b601f0160209004905f5260205f2090810190611d509190611d05565b50565b5f60208284031215611d63575f5ffd5b5035919050565b5f81518084528060208401602086015e5f602082860101526020601f19601f83011685010191505092915050565b61010081525f611dac61010083018b611d6a565b8281036020840152611dbe818b611d6a565b9050828103604084015280895180835260208301915060208160051b84010160208c015f5b83811015611e1557601f19868403018552611dff838351611d6a565b6020958601959093509190910190600101611de3565b505080945050505050866060830152856080830152611e3860a083018615159052565b6001600160a01b039390931660c082015260e001529695505050505050565b604080825283519082018190525f9060208501906060840190835b81811015611e90578351835260209384019390920191600101611e72565b5050602093909301939093525092915050565b634e487b7160e01b5f52604160045260245ffd5b604051601f8201601f1916810167ffffffffffffffff81118282101715611ee057611ee0611ea3565b604052919050565b5f82601f830112611ef7575f5ffd5b8135602083015f5f67ffffffffffffffff841115611f1757611f17611ea3565b50601f8301601f1916602001611f2c81611eb7565b915050828152858383011115611f40575f5ffd5b828260208301375f92810160200192909252509392505050565b5f5f5f5f5f60a08688031215611f6e575f5ffd5b853567ffffffffffffffff811115611f84575f5ffd5b611f9088828901611ee8565b955050602086013567ffffffffffffffff811115611fac575f5ffd5b611fb888828901611ee8565b945050604086013567ffffffffffffffff811115611fd4575f5ffd5b8601601f81018813611fe4575f5ffd5b803567ffffffffffffffff811115611ffe57611ffe611ea3565b8060051b61200e60208201611eb7565b9182526020818401810192908101908b841115612029575f5ffd5b6020850192505b8383101561206f57823567ffffffffffffffff81111561204e575f5ffd5b61205d8d602083890101611ee8565b83525060209283019290910190612030565b989b979a50979860608101359850608001359695505050505050565b80356001600160a01b03811681146120a1575f5ffd5b919050565b5f5f604083850312156120b7575f5ffd5b823591506120c76020840161208b565b90509250929050565b5f5f5f5f5f608086880312156120e4575f5ffd5b853594506020860135935060408601359250606086013567ffffffffffffffff81111561210f575f5ffd5b8601601f8101881361211f575f5ffd5b803567ffffffffffffffff811115612135575f5ffd5b886020828401011115612146575f5ffd5b959894975092955050506020019190565b60e081525f61216960e083018a611d6a565b828103602084015261217b818a611d6a565b60408401989098525050606081019490945291151560808401526001600160a01b031660a083015260c09091015292915050565b602081525f6114ec6020830184611d6a565b5f5f5f606084860312156121d3575f5ffd5b83359250602084013567ffffffffffffffff8111156121f0575f5ffd5b6121fc86828701611ee8565b925050604084013567ffffffffffffffff811115612218575f5ffd5b61222486828701611ee8565b9150509250925092565b5f6020828403121561223e575f5ffd5b6114ec8261208b565b600181811c9082168061225b57607f821691505b60208210810361108957634e487b7160e01b5f52602260045260245ffd5b634e487b7160e01b5f52603260045260245ffd5b634e487b7160e01b5f52601160045260245ffd5b5f600182016122b2576122b261228d565b5060010190565b601f821115610dcf57805f5260205f20601f840160051c810160208510156122de5750805b601f840160051c820191505b818110156122fd575f81556001016122ea565b5050505050565b815167ffffffffffffffff81111561231e5761231e611ea3565b6123328161232c8454612247565b846122b9565b6020601f821160018114612364575f831561234d5750848201515b5f19600385901b1c1916600184901b1784556122fd565b5f84815260208120601f198516915b828110156123935787850151825560209485019460019092019101612373565b50848210156123b057868401515f19600387901b60f8161c191681555b50505050600190811b01905550565b60a081525f6123d160a0830188611d6a565b90508560208301528460408301528360608301528260808301529695505050505050565b6054811061241157634e487b7160e01b5f52602160045260245ffd5b9052565b828152604081016114ec60208301846123f5565b5f60208284031215612439575f5ffd5b5051919050565b8481526001600160a01b0384166020820152608060408201525f6124676080830185611d6a565b905061247660608301846123f5565b95945050505050565b8082018082111561138b5761138b61228d565b5f83518060208601845e9190910191825250602001919050565b5f8151808452602084019350602083015f5b828110156124dc5781518652602095860195909101906001016124be565b5093949350505050565b606081525f6124f860608301866124ac565b828103602084015261250a8186611d6a565b905082810360408401526118d28185611d6a565b5f6020828403121561252e575f5ffd5b815180151581146114ec575f5ffd5b602081525f6114ec60208301846124ac565b838152606060208201525f61256760608301856124ac565b905063ffffffff60e01b8316604083015294935050505056fea164736f6c634300081b000a",
  "devdoc": {
    "details": "A confidential voting contract using Zama's Fully Homomorphic Encryption (FHE)",
    "kind": "dev",
    "methods": {
      "createPoll(string,string,string[],uint256,uint256)": {
        "params": {
          "description": "Poll description  ",
          "endTime": "Voting end timestamp",
          "options": "Array of voting options",
          "startTime": "Voting start timestamp",
          "title": "Poll title"
        },
        "returns": {
          "pollId": "The ID of the created poll"
        }
      },
      "publicReveal(uint256)": {
        "params": {
          "pollId": "The poll ID to reveal"
        }
      },
      "requestReveal(uint256)": {
        "params": {
          "pollId": "The poll ID to reveal"
        }
      },
      "revealCallback(uint256,bytes,bytes)": {
        "params": {
          "cleartexts": "The decrypted values",
          "decryptionProof": "The proof of correct decryption",
          "requestId": "The decryption request ID"
        }
      },
      "setCreationFee(uint256)": {
        "params": {
          "newFee": "New creation fee in wei"
        }
      },
      "vote(uint256,uint256,bytes32,bytes)": {
        "params": {
          "encryptedOne": "Encrypted value of 1 (the vote)",
          "inputProof": "Zero-knowledge proof for the encrypted input",
          "optionId": "The option index to vote for",
          "pollId": "The poll ID to vote in"
        }
      }
    },
    "title": "PrivateVote",
    "version": 1
  },
  "userdoc": {
    "errors": {
      "HandlesAlreadySavedForRequestID()": [
        {
          "notice": "Returned if some handles were already saved for corresponding ID."
        }
      ],
      "InvalidKMSSignatures()": [
        {
          "notice": "Returned if the returned KMS signatures are not valid."
        }
      ],
      "NoHandleFoundForRequestID()": [
        {
          "notice": "Returned if there was not handle found for the requested ID."
        }
      ]
    },
    "events": {
      "DecryptionFulfilled(uint256)": {
        "notice": "This event is emitted when requested decryption has been fulfilled."
      }
    },
    "kind": "user",
    "methods": {
      "canCreatePoll(address)": {
        "notice": "Check if address can create polls (anyone with enough ETH)"
      },
      "createPoll(string,string,string[],uint256,uint256)": {
        "notice": "Create a new poll with encrypted tally tracking (anyone can create with fee)"
      },
      "getContractBalance()": {
        "notice": "Get contract balance"
      },
      "getCreationFee()": {
        "notice": "Get creation fee amount"
      },
      "getPollInfo(uint256)": {
        "notice": "Get poll basic information"
      },
      "getPollResults(uint256)": {
        "notice": "Get poll results (only available after reveal)"
      },
      "getPollStatus(uint256)": {
        "notice": "Get current voting status of a poll"
      },
      "hasVoted(uint256,address)": {
        "notice": "Check if an address has voted in a poll"
      },
      "isDecryptionInProgress(uint256)": {
        "notice": "Check if decryption is in progress"
      },
      "publicReveal(uint256)": {
        "notice": "Public reveal - anyone can reveal poll results after voting ends"
      },
      "requestReveal(uint256)": {
        "notice": "Request decryption of poll results (creator or owner only, after voting ends)"
      },
      "revealCallback(uint256,bytes,bytes)": {
        "notice": "Callback function called by the decryption oracle"
      },
      "setCreationFee(uint256)": {
        "notice": "Set the creation fee for new polls (owner only)"
      },
      "transferOwnership(address)": {
        "notice": "Transfer owner role (current owner only)"
      },
      "vote(uint256,uint256,bytes32,bytes)": {
        "notice": "Cast an encrypted vote for a specific option"
      },
      "withdrawFees()": {
        "notice": "Withdraw collected fees (owner only)"
      }
    },
    "notice": "Enables private voting where votes remain encrypted until results are revealed  Current Features: - Permissionless poll creation (0.001 ETH anti-spam fee) - FHE-encrypted vote tallies using euint64 homomorphic operations - Time-based voting windows with strict validation - Public reveal mechanism - anyone can trigger result decryption - Anti-double voting with address tracking - Owner fee management and withdrawal  Privacy Model: - Individual votes encrypted with FHEVM during voting period - Vote tallies computed homomorphically (FHE.add) without decryption - Only final aggregate totals revealed via KMS public decryption - Voter choices never exposed, only final counts  Security: - Testnet/demo contract - NOT audited for production - ACL controls access to encrypted data - KMS signature verification prevents oracle manipulation - Creator and public reveal options prevent stuck polls",
    "version": 1
  },
  "storageLayout": {
    "storage": [
      {
        "astId": 39066,
        "contract": "contracts/PrivateVote.sol:PrivateVote",
        "label": "owner",
        "offset": 0,
        "slot": "0",
        "type": "t_address"
      },
      {
        "astId": 39068,
        "contract": "contracts/PrivateVote.sol:PrivateVote",
        "label": "pollCount",
        "offset": 0,
        "slot": "1",
        "type": "t_uint256"
      },
      {
        "astId": 39071,
        "contract": "contracts/PrivateVote.sol:PrivateVote",
        "label": "creationFee",
        "offset": 0,
        "slot": "2",
        "type": "t_uint256"
      },
      {
        "astId": 39076,
        "contract": "contracts/PrivateVote.sol:PrivateVote",
        "label": "polls",
        "offset": 0,
        "slot": "3",
        "type": "t_mapping(t_uint256,t_struct(Poll)39064_storage)"
      },
      {
        "astId": 39080,
        "contract": "contracts/PrivateVote.sol:PrivateVote",
        "label": "_decryptionRequestIds",
        "offset": 0,
        "slot": "4",
        "type": "t_mapping(t_uint256,t_uint256)"
      }
    ],
    "types": {
      "t_address": {
        "encoding": "inplace",
        "label": "address",
        "numberOfBytes": "20"
      },
      "t_array(t_string_storage)dyn_storage": {
        "base": "t_string_storage",
        "encoding": "dynamic_array",
        "label": "string[]",
        "numberOfBytes": "32"
      },
      "t_bool": {
        "encoding": "inplace",
        "label": "bool",
        "numberOfBytes": "1"
      },
      "t_mapping(t_address,t_bool)": {
        "encoding": "mapping",
        "key": "t_address",
        "label": "mapping(address => bool)",
        "numberOfBytes": "32",
        "value": "t_bool"
      },
      "t_mapping(t_uint256,t_struct(Poll)39064_storage)": {
        "encoding": "mapping",
        "key": "t_uint256",
        "label": "mapping(uint256 => struct PrivateVote.Poll)",
        "numberOfBytes": "32",
        "value": "t_struct(Poll)39064_storage"
      },
      "t_mapping(t_uint256,t_uint256)": {
        "encoding": "mapping",
        "key": "t_uint256",
        "label": "mapping(uint256 => uint256)",
        "numberOfBytes": "32",
        "value": "t_uint256"
      },
      "t_mapping(t_uint256,t_userDefinedValueType(euint64)40179)": {
        "encoding": "mapping",
        "key": "t_uint256",
        "label": "mapping(uint256 => euint64)",
        "numberOfBytes": "32",
        "value": "t_userDefinedValueType(euint64)40179"
      },
      "t_string_storage": {
        "encoding": "bytes",
        "label": "string",
        "numberOfBytes": "32"
      },
      "t_struct(Poll)39064_storage": {
        "encoding": "inplace",
        "label": "struct PrivateVote.Poll",
        "members": [
          {
            "astId": 39035,
            "contract": "contracts/PrivateVote.sol:PrivateVote",
            "label": "title",
            "offset": 0,
            "slot": "0",
            "type": "t_string_storage"
          },
          {
            "astId": 39037,
            "contract": "contracts/PrivateVote.sol:PrivateVote",
            "label": "description",
            "offset": 0,
            "slot": "1",
            "type": "t_string_storage"
          },
          {
            "astId": 39040,
            "contract": "contracts/PrivateVote.sol:PrivateVote",
            "label": "options",
            "offset": 0,
            "slot": "2",
            "type": "t_array(t_string_storage)dyn_storage"
          },
          {
            "astId": 39042,
            "contract": "contracts/PrivateVote.sol:PrivateVote",
            "label": "startTime",
            "offset": 0,
            "slot": "3",
            "type": "t_uint256"
          },
          {
            "astId": 39044,
            "contract": "contracts/PrivateVote.sol:PrivateVote",
            "label": "endTime",
            "offset": 0,
            "slot": "4",
            "type": "t_uint256"
          },
          {
            "astId": 39046,
            "contract": "contracts/PrivateVote.sol:PrivateVote",
            "label": "revealed",
            "offset": 0,
            "slot": "5",
            "type": "t_bool"
          },
          {
            "astId": 39048,
            "contract": "contracts/PrivateVote.sol:PrivateVote",
            "label": "creator",
            "offset": 1,
            "slot": "5",
            "type": "t_address"
          },
          {
            "astId": 39053,
            "contract": "contracts/PrivateVote.sol:PrivateVote",
            "label": "encTallies",
            "offset": 0,
            "slot": "6",
            "type": "t_mapping(t_uint256,t_userDefinedValueType(euint64)40179)"
          },
          {
            "astId": 39057,
            "contract": "contracts/PrivateVote.sol:PrivateVote",
            "label": "plainTallies",
            "offset": 0,
            "slot": "7",
            "type": "t_mapping(t_uint256,t_uint256)"
          },
          {
            "astId": 39061,
            "contract": "contracts/PrivateVote.sol:PrivateVote",
            "label": "hasVoted",
            "offset": 0,
            "slot": "8",
            "type": "t_mapping(t_address,t_bool)"
          },
          {
            "astId": 39063,
            "contract": "contracts/PrivateVote.sol:PrivateVote",
            "label": "totalVoters",
            "offset": 0,
            "slot": "9",
            "type": "t_uint256"
          }
        ],
        "numberOfBytes": "320"
      },
      "t_uint256": {
        "encoding": "inplace",
        "label": "uint256",
        "numberOfBytes": "32"
      },
      "t_userDefinedValueType(euint64)40179": {
        "encoding": "inplace",
        "label": "euint64",
        "numberOfBytes": "32"
      }
    }
  }
}